:03000000020752A2
:0C075200787FE4F6D8FD75813C02079921
:100BFA00000103040607633A206F6E2000633A205F
:100C0A006F666600323032302D342D3320467269D9
:010C1A0000D9
:100C5500112C00000500000000000000000000004D
:060C65000000000129005F
:100B2000FD7431252EF8A60574FA252EF582740B76
:070B3000352DF583E493FF6E
:100B37008F0EED2430FF120CABE50E24C0FF020030
:010B470003AA
:060944008B148A158916D0
:10094A009000011204BDFD7C001204A475F00AA4F3
:10095A002DFFEC35F0FEC3EF9418EE6480948040CE
:10096A0010E41204EAAB14AA15A9169000011204A5
:10097A00FC7F02EFC39405502BAB14AA15A9168F5E
:10098A00827583001204BDFED3940540047E05805F
:10099A0000AB14AA15A9168F82758300EE1204FC07
:0409AA000F0F80CFDC
:0109AE002226
:100860008B0E8A0F8910AB11AA12A913120944AB7F
:1008700011AA12A9139000041204BD75F00AA4FF76
:100880009000051204BD2FAB0EAA0FA91090000214
:100890001204FCAB11AA12A9139000021204BD7538
:1008A000F00AA4FF9000031204BD2FAB0EAA0FA9FB
:1008B000109000011204FCAB11AA12A913900001C0
:1008C0001204BDFF1204A475F00AA42FAB0EAA0FE8
:0508D000A9100204EA7A
:1008D500C28C780E7C007D007B007A0079377E0023
:0E08E5007F0312047E75110075120075133129
:1008F300E51075F00A84AB11AA12A913900005E55F
:10090300F01204FCE51075F00A849000041204FC54
:10091300E50F75F00A84900003E5F01204FCE50F7F
:1009230075F00A849000021204FCE50E75F00A8447
:10093300900001E5F01204FCE50E75F00A84020450
:01094300EAC9
:040B94007F057E005B
:100B9800D3EF9400EE940040147D6E7C00ED1D7040
:0D0BA800011CED4C70F7EF1F70E61E80E39E
:010BB500221D
:10000E00E4F50CF50DF509AF097401A80708800297
:10001E00C333D8FCF4F590750B10E4F50AAF0A74EF
:10002E0010A807088002C333D8FCF454F0F50BE592
:10003E009054F0650B702B7F05FE120B98E59054D3
:10004E00F0650B7013D2A3E52F4530600BE5092543
:10005E00E025E0250A120B20E59054F0650B60F8C0
:10006E00C2A3050AE50AC3940440B20509E509C313
:10007E00940240937590FB7F017E00120B98E4F57D
:10008E000AAF0A7410A807088002C333D8FCF454D0
:10009E00F0F50BE59054F0650B70277F05FE120B03
:1000AE0098E59054F0650B700FD2A3E52F453060A4
:1000BE0007E50A2408120B20E59054F0650B60F852
:1000CE00C2A3050AE50AC3940240B6E59054F02493
:1000DE0090605024C06003020178120B94E5905496
:1000EE00F064B07032D2A3E52F7004E5306028744E
:1000FE0031252EF8E6FFC39409500606E6FEFF8072
:10010E00008F0B74FA252EF582740B352DF583E4D2
:10011E0093FFAD0B120B37E59054F064B060F8C24C
:10012E00A38047120B94E59054F064707032D2A302
:10013E00E52F7004E53060287431252EF8E6FFD3E4
:10014E009400400616E6FEFF80008F0B74FA252EF3
:10015E00F582740B352DF583E493FFAD0B120B373F
:10016E00E59054F0647060F8C2A37590F77F017E3D
:10017E0000120B98E59054F0249070030202D724DD
:10018E00C0700302024A24E0605724F060030203A9
:10019E00AD120B94E59054F064E0703AD2A3E52FC3
:1001AE0045306014E52E2401FFE4352DFE7C007DE4
:1001BE00061205308C2D8D2E7F0C12000374FA253D
:1001CE002EF582740B352DF583E49324C0FF1200B7
:1001DE00037F0F120003E59054F064E060F8C2A3B1
:1001EE0022120B94E59054F064D07045D2A3E52F03
:1001FE004530601FE52E152E7002152DC3E52D64BA
:10020E0080948050067E007F058004AE2DAF2E8E2A
:10021E002D8F2E7F0C12000374FA252EF582740B8F
:10022E00352DF583E49324C0FF1200037F0F1200D7
:10023E0003E59054F064D060F8C2A322120B94E54B
:10024E009054F064B060030203ADD2A3E530707633
:10025E00E59054F0FFBFB01C7F017E00120B980595
:10026E000DE50D7002050CC394E8E50C940340E017
:10027E00D2A480DCC2A4E52F602EE4F52FF52D75F7
:10028E002E057F0C120003C3E50D94E8E50C9403D4
:10029E0050127511007512007513317B007A0079BA
:1002AE0037120860D28C801E1208D5052F74FA25DD
:1002BE002EF582740B352DF583E49324C0FF1200C6
:1002CE00037F0F120003C2A322120B94E59054F089
:1002DE00647060030203ADD2A3E52F60030203AB8B
:1002EE00E59054F0FFBF70297F017E00120B980538
:1002FE000DE50D7002050CD394E8E50C9403400255
:10030E00D2A5D3E50D94B8E50C940B40D3D2A680BC
:10031E00CFC2A5C2A6D3E50D94B8E50C940B402D23
:10032E00E52CF45401F52C7BFF60067A0C790080E5
:10033E00047A0C79077D0A7F02120ABBE4F530F5C8
:10034E002D752E057F0C120003D28C8050E5306087
:10035E002EE4F530F52D752E057F0C120003C3E546
:10036E000D94E8E50C94035012751100751200758A
:10037E0013317B007A00793A120860D28C801E12FB
:10038E0008D5053074FA252EF582740B352DF583BC
:0F039E00E49324C0FF1200037F0F120003C2A3D9
:0103AD00222D
:1009AF0078197C007D007B007A0079377E007F0309
:0309BF0012047EA1
:1009C200E51975F00A842430F51CE51975F00A84DE
:1009D200E5F02430F51D751E3AE51A75F00A8424F7
:1009E20030F51FE51A75F00A84E5F02430F520751C
:1009F200213AE51B75F00A842430F522E51B75F0D7
:100A02000A84E5F02430F523E4F524FB7A00791C0E
:070A12007D017F02020ABB17
:100A19008E098F0A758901AE09AF0A7C037DE81238
:100A2900051EE4C39FFFE49EFE74019400FDE49457
:100A390000FC78081205668F2AAE09AF0A7C037D8F
:100A4900E812051EE4C39FFFE49EFE74019400FDB5
:100A5900E49400FCE4FB7A01F9F8120A77AF038FFA
:0E0A69002B852A8C852B8AD2AFD2A9D28C2263
:10069D00750864C2A3C2A4C2A5C2A6120C6C120C2A
:1006AD008D7BFF7A0C790E7D027F01120ABB7BFFD9
:1006BD007A0C79077D0A7F02120ABBE4FF120BD870
:1006CD00EF6461601E7D61E4FF120BB6AD377F01F3
:1006DD00120BB6AD387F02120BB6AD397F03120B7C
:1006ED00B680157F01120BD88F377F02120BD88F72
:1006FD00387F03120BD88F391209AF7F327E00126B
:10070D000A1912000EE52C60F9E537B53AF4E53813
:10071D00B53BEFE539B53CEAC28CD2A3AF0815085D
:10072D00EF60097F327E00120B9880F0C2A375082E
:10073D0064D28CE4F52C7BFF7A0C79077D0A7F025D
:05074D00120ABB80BD93
:03000B000207DE0B
:1007DE00C0E0C0F0C083C082C0D075D000C000C0E1
:0D07EE0001C002C003C004C005C006C00762
:1007FB000529E5296414703CF5290539AD397F03CA
:10080B00120BB6E539C3943C40277539000538E522
:10081B0038943C40157538000537E537941840037C
:10082B00753700AD377F01120BB6AD387F02120B57
:0A083B00B61209AF852A8C852B8ABE
:10084500D007D006D005D004D003D002D001D00007
:0B085500D0D0D082D083D0F0D0E032B1
:0F0AF3008FB07F057E00120B02D2A27F057E001E
:100B0200D3EF9400EE940040147D6E7C00ED1D70D6
:0D0B1200011CED4C70F7EF1F70E61E80E334
:010B1F0022B3
:08000300C2A0120AF3C2A222FE
:080CAB00D2A0120AF3C2A2223A
:060ABB008B258A26892725
:100AC100EDBF0106247FF528800424BFF528AF2857
:100AD100120003AB25AA26A9271204A46013052737
:100AE100E5277002052614F91204A4FF120CAB804D
:010AF100E222
:010AF20022E1
:100C6C00C2A27F381200037F0C1200037F06120011
:060C7C00037F01020003EA
:050C8200120C87D2A056
:060C870000000000002245
:100C1B00D3EF9400EE940040147D6E7C00ED1D70BC
:0D0C2B00011CED4C70F7EF1F70E61E80E31A
:010C38002299
:0A0C8D00D2A1120C87D2A0020C873E
:0A0C9700D2A1120C82C2A1020C8748
:0A0CA100C2A1120C82D2A1020C873E
:050C3900AF05120B489D
:100C3E00D2A0120C8730A10AAF190519EFC3943256
:070C4E0040F3C2A0020C8775
:100B48007E80EE6017C2A0120C875F6004D2A1807D
:100B580002C2A1120C82EEC313FE80E6C2A0120CE0
:060B680087D2A1020C87F8
:100B6E00E4FFC2A0120C87D2A1120C87FED2A012F3
:100B7E000C87EF25E0FFA2A1E4334FFFC2A0120CB9
:050B8E00870EBE08E81F
:010B9300223F
:020BB600AC078A
:100BB8007FA0120C97120B48120C3EAF04120B4880
:100BC800120C3E120C39120CA17F017E00020C1B84
:020BD800AD0767
:100BDA00120C977FA0120B48120C3E120C39120C01
:0F0BEA00977FA1120B48120C3E120B6E120CA13A
:010BF90022D9
:10075E0002069DE493A3F8E493A34003F68001F20E
:10076E0008DFF48029E493A3F85407240CC8C3339C
:10077E00C4540F4420C8834004F456800146F6DF6B
:10078E00E4800B0102040810204080900C55E47E9A
:10079E00019360BCA3FF543F30E509541FFEE49360
:1007AE00A360010ECF54C025E060A840B8E493A327
:1007BE00FAE493A3F8E493A3C8C582C8CAC583CA52
:1007CE00F0A3C8C582C8CAC583CADFE9DEE780BE0A
:010C6B000088
:1003AE00E709F608DFFA8046E709F208DFFA803E31
:1003BE0088828C83E709F0A3DFFA8032E309F6081E
:1003CE00DFFA8078E309F208DFFA807088828C8386
:1003DE00E309F0A3DFFA806489828A83E0A3F6083A
:1003EE00DFFA805889828A83E0A3F208DFFA804C14
:1003FE0080D280FA80C680D4806980F280338010EB
:10040E0080A680EA809A80A880DA80E280CA803353
:10041E0089828A83ECFAE493A3C8C582C8CCC583CB
:10042E00CCF0A3C8C582C8CCC583CCDFE9DEE7809B
:10043E000D89828A83E493A3F608DFF9ECFAA9F01A
:10044E00EDFB2289828A83ECFAE0A3C8C582C8CC70
:10045E00C583CCF0A3C8C582C8CCC583CCDFEADE89
:10046E00E880DB89828A83E493A3F208DFF980CCEB
:10047E0088F0EF60010E4E60C388F0ED2402B404E4
:10048E000050B9F582EB2402B4040050AF2323458B
:06049E0082239003FE73AF
:1004A400BB010689828A83E0225002E722BBFE0256
:0904B400E32289828A83E4932289
:1004BD00BB010CE58229F582E5833AF583E02250F4
:1004CD0006E92582F8E622BBFE06E92582F8E2223E
:0D04DD00E58229F582E5833AF583E4932258
:1004EA00BB010689828A83F0225002F722BBFE01F1
:0204FA00F322EB
:1004FC00F8BB010DE58229F582E5833AF583E8F036
:10050C00225006E92582C8F622BBFE05E92582C8E1
:02051C00F222C9
:10051E00EF8DF0A4A8F0CF8CF0A428CE8DF0A42EF1
:02052E00FE22AB
:10053000C2D5EC30E709B2D5E4C39DFDE49CFCEEE6
:1005400030E715B2D5E4C39FFFE49EFE12057AC3DF
:10055000E49DFDE49CFC800312057A30D507C3E4DA
:060560009FFFE49EFE2255
:100A7700C2D5E830E70FB2D5E4C39BFBE49AFAE4AA
:100A870099F9E498F8EC30E717B2D5120AAD1206D7
:100A97000BE4C39BFBE49AFAE499F9E498F8800322
:100AA70012060B30D50DE4C39FFFE49EFEE49DFDC7
:040AB700E49CFC229D
:10056600E86010ECA2E713FCED13FDEE13FEEF13AB
:04057600FFD8F02298
:10057A00BC000BBE0029EF8DF084FFADF022E4CC65
:10058A00F875F008EF2FFFEE33FEEC33FCEE9DEC2E
:10059A00984005FCEE9DFE0FD5F0E9E4CEFD22ED74
:1005AA00F8F5F0EE8420D21CFEADF075F008EF2FBE
:1005BA00FFED33FD4007985006D5F0F222C398FDAF
:0505CA000FD5F0EA224C
:1005CF0075F008758200EF2FFFEE33FECD33CDCCE3
:1005DF0033CCC58233C5829BED9AEC99E582984066
:1005EF000CF582EE9BFEED9AFDEC99FC0FD5F0D643
:1005FF00E4CEFBE4CDFAE4CCF9A88222B800C1B96D
:10060F000059BA002DEC8BF084CFCECDFCE5F0CBAA
:10061F00F97818EF2FFFEE33FEED33FDEC33FCEBE3
:10062F0033FB10D703994004EB99FB0FD8E5E4F99E
:10063F00FA227818EF2FFFEE33FEED33FDEC33FC8B
:10064F00C933C910D7059BE99A4007EC9BFCE99A7F
:10065F00F90FD8E0E4C9FAE4CCFB2275F010EF2FC4
:10066F00FFEE33FEED33FDCC33CCC833C810D707C4
:10067F009BEC9AE899400AED9BFDEC9AFCE899F8FF
:0E068F000FD5F0DAE4CDFBE4CCFAE4C8F92292
:00000001FF
